:020000040800F2
:1000000078490020E90200088B1B0008011A00084B
:10001000891B00085F050008B523000800000000E8
:10002000000000000000000000000000290200089D
:1000300001060008000000008502000839210008C0
:100040000303000803030008030300080303000878
:100050000303000803030008030300080303000868
:100060000303000803030008030300080303000858
:1000700079050008030300080303000803030008D0
:100080000303000803030008030300086D050008CC
:1000900061050008030300080303000803030008C8
:1000A0000303000803030008030300080303000818
:1000B0000303000803030008030300080303000808
:1000C00003030008030300080303000803030008F8
:1000D00003030008030300080303000801230008CA
:1000E00003030008030300080303000803030008D8
:1000F00003030008030300080303000803030008C8
:1001000003030008030300080303000803030008B7
:1001100003030008030300080303000803030008A7
:100120000303000803030008030300080303000897
:100130000303000803030008030300080303000887
:100140000303000803030008030300080303000877
:100150000303000803030008030300080303000867
:100160000303000803030008030300080303000857
:100170000303000803030008030300080000000055
:10018000030300080303000800F002F800F03CF845
:100190000AA090E8000C82448344AAF10107DA45E2
:1001A00001D100F031F8AFF2090EBAE80F0013F0F8
:1001B000010F18BFFB1A43F001031847603B000012
:1001C000803B0000103A24BF78C878C1FAD85207A3
:1001D00024BF30C830C144BF04680C6070470000C1
:1001E0000023002400250026103A28BF78C1FBD840
:1001F000520728BF30C148BF0B6070471FB503F0DE
:100200003BFD1FBD10B510BD00F074F91146FFF79E
:10021000F5FF02F039F900F092F903B4FFF7F2FFAD
:1002200003BC00F095F900002C4B19680868B0E891
:10023000F04F80F30988BFF36F8F4FF0000080F319
:10024000118870470000000008480068006880F3CB
:1002500008884FF0000080F3148862B661B6BFF3DF
:100260004F8FBFF36F8F00DF00BF00BF08ED00E0CE
:10027000DFF80C00016841F470010160704700BFB5
:1002800088ED00E0EFF30980BFF36F8F134B1A681E
:100290001EF0100F08BF20ED108A20E9F04F10600B
:1002A00009B44FF0500080F31188BFF34F8FBFF3B4
:1002B0006F8F02F081FD4FF0000080F3118809BCC0
:1002C00019680868B0E8F04F1EF0100F08BFB0ECD6
:1002D000108A80F30988BFF36F8F70476000002099
:1002E000EFF3058070470000094880470948004740
:1002F000FEE7FEE7FEE7FEE7FEE7FEE7FEE7FEE7D6
:10030000FEE7FEE704480549054A064B7047000032
:10031000E521000889010008784300207849002081
:10032000784500207845002053EA020C00F06980EF
:100330002DE9F04B4FF00006002B1FBFB3FA83F5F9
:1003400003FA05F424FA05F65E4012BF1643B2FA2A
:1003500082F502FA05F4C5F120051EBF22FA05FC5C
:1003600044EA0C04203556EA044C4FEA144418BF02
:10037000641C4FF000084FF00009904271EB030C31
:1003800039D3002919BFB1FA81F701FA07F6B0FA9B
:1003900080F700FA07F6C7F120071EBF20FA07FC16
:1003A00046EA0C062037B6FBF4FCA7EB0507103F26
:1003B00007F01F0BCBF120060CFA0BFB2CFA06F60C
:1003C00044BFB3460026202FA4BF5E464FF0000B6B
:1003D0005BEA060C08BF4FF0010B19EB0B09ABFBF6
:1003E000027C48EB0608C01B06FB02CC0BFB03CCCF
:1003F00071EB0C01C1E70B46024641464846BDE899
:10040000F08B13B54FF000004FF00001AFF3008008
:10041000BDE81C40704710B5203AC0F00B80B1E831
:100420001850203AA0E81850B1E81850A0E8185029
:10043000BFF4F5AF5FEA027C24BFB1E81850A0E832
:10044000185044BF18C918C0BDE810405FEA827C4C
:1004500024BF51F8043B40F8043B08BF7047D20763
:1004600028BF31F8023B48BF11F8012B28BF20F804
:10047000023B48BF00F8012B70474FF0000200B567
:10048000134694469646203922BFA0E80C50A0E8B7
:100490000C50B1F12001BFF4F7AF090728BFA0E865
:1004A0000C5048BF0CC05DF804EB890028BF40F831
:1004B000042B08BF704748BF20F8022B11F0804F73
:1004C00018BF00F8012B704770477047704710B590
:1004D00000F008F8006810BD10B5044600F002F8FE
:1004E000046010BD00487047144300200048704766
:1004F000144300207546FFF7F9FFAE460500694634
:10050000534620F00700854618B020B5FFF7FAFEE5
:10051000BDE820404FF000064FF000074FF0000804
:100520004FF0000B21F00701AC46ACE8C009ACE885
:10053000C009ACE8C009ACE8C0098D46704710B5E9
:100540000446AFF300802046BDE81040FFF765BECB
:1005500001491820ABBEFEE7260002007047FEE707
:10056000014800F0C2B90000F8040020014800F082
:10057000BCB90000F8040020014800F019BC0000DC
:100580006405002001681823CAB2103AB2FBF3F2E6
:10059000054B6FF30901032A9B5CC36500D9091D54
:1005A0008165084670470000E03C000810B5014630
:1005B00000208B698A6A4FF0C07453B1B3F5005FB5
:1005C00015D072B1012A0CD0022A0AD0032A09D10F
:1005D00004E01AB1012A06D0022A03D1C96AC9016E
:1005E00000D5012010BDC96AA142FAD010BD002A71
:1005F000F7D0012AF2D0022AF3D0032AF3D010BD9B
:10060000704772B6FEE790F82020012A07D0022A30
:1006100005D0416A41F480214162012070470068A1
:1006200042690A43426100207047F0B590F82050BB
:100630000468A468012D05D0022D03D0416A41F45D
:10064000802153E014F0406F01D1E5004BD5C4F395
:100650000164022C03D9416A41F4000146E00125FE
:10066000A5401D608D684FF4C0739DB1CE683543C1
:100670004E6845EAC605066803EB0417F5514FF4CA
:10068000C275076805EB04150E697E51097D0129C5
:1006900005D009E00E88CD6845EA4655EBE70168CC
:1006A0004E5946F480764E511179D2F805504FF4E8
:1006B000C67641EA0525016806EB04168D511178CE
:1006C000D2F801204FF4C47541EA0221026805EB1B
:1006D00004155151006803EB0411425842F0010225
:1006E00042500020F0BD416A41F4001141620120F6
:1006F000F0BD000010B590F82020012A07D0022A92
:1007000005D0416A41F480214162012010BD3B487F
:10071000D0F8002242F00102C0F80022D0F80022F6
:1007200022F47C52C0F80022D0F800224B6A42EA40
:100730000322C0F800220A7D02F01F0301229A4022
:10074000D0F81C329343C0F81C32CB69B3B9D0F84F
:100750000C329343C0F80C328C894B6864F31F430E
:100760004C6900EBC404C4F840320C890B6864F394
:100770001F434C6900EBC404C4F84432CB69012B1D
:1007800016D1D0F80C321343C0F80C320C884B68E9
:1007900064F31F434C6900EBC404C4F840320C8975
:1007A000CB6864F31F434C6900EBC404C4F84432C3
:1007B0008B69002BD0F804320ED01343C0F80432FA
:1007C0000B69002BD0F8143208D01343C0F8143250
:1007D000096A012904D008E09343EFE79343F5E762
:1007E000D0F81C121143C0F81C12D0F8001221F0EE
:1007F0000101C0F80012002010BD0000006400409C
:10080000704730B590F82040012C05D0022C03D061
:10081000416A41F480215DE00468002955D02469D3
:10082000A40754D04FF4D874056804EB01142D5973
:1008300015F00405956005682D594ED0ED085560FA
:1008400005682C5904F00204D4604FF4DA7405688A
:1008500004EB01142D5905F00F05156105682D599C
:10086000C5F30725956105682C59240C54614FF494
:10087000DC72046802EB0112A4581C700468A458CE
:10088000240A5C700468A458240C9C700468A25864
:10089000120EDA704FF4DE72046802EB0112A458F3
:1008A0001C710468A458240A5C710468A458240CC0
:1008B0009C710468A258120EDA71006881B1016956
:1008C00041F020010161002030BDE468A8E7416AE1
:1008D00041F400114162012030BD6D0D1560AFE79C
:1008E000C16841F02001C160EDE72DE9F05F0546E8
:1008F000006800244669D0F804908768D0F80CB0EE
:10090000D0F810A0D0F81880F10748D0F90714D01B
:1009100001218160B80703D5284600F042FA0CE0B7
:10092000780702D54FF4006407E0380702D54FF48A
:10093000805402E0284600F033FAF80516D52968FD
:100940004FF480708860B80503D5284600F02BFA74
:100950000CE0780502D544F4005407E0380502D5D0
:1009600044F4804402E0284600F01CFAF80316D54F
:1009700029684FF480308860B80303D5284600F01A
:1009800014FA0CE0780302D544F4004407E038037D
:1009900002D544F4803402E0284600F005FA30071E
:1009A00007D55FEACB6004D52968102044F40074B1
:1009B000C86070074FF0080707D55FEA0B7004D5D1
:1009C0002868C760284600F05FF9B00706D5286898
:1009D000C068800702D0284600F058F9700607D595
:1009E0005FEACA6004D52968102044F48064086175
:1009F000B00607D55FEA0A7004D528680761284663
:100A000000F09EF9F00606D528680069800702D03C
:100A1000284600F096F9B00308D55FEAC96005D50D
:100A2000296810204860284600F08CF9F00307D5AB
:100A30005FEA097004D528684760284600F0B6F9D7
:100A4000300446D55FEA497040D5F00504D55FEA29
:100A5000C87001D044F00104B00504D55FEA887085
:100A600001D544F00204700504D55FEA487001D551
:100A700044F00404300529D518F0700F26D008F092
:100A80007000402815D006DC102809D020280AD094
:100A9000302816D10AE050280ED0602811D10EE07F
:100AA00044F008040DE044F010040AE044F020048F
:100AB00007E044F0400404E044F0800401E044F422
:100AC00080742868816921F070018161296804209F
:100AD0004860002C05D0686A204368622846FFF70A
:100AE0008FFEBDE8F09F70B5040003D094F820009D
:100AF00010B104E0012070BD204600F081F82068AC
:100B0000016841F00101016000F092FB05460526F5
:100B100004E000F08DFB401B0A2811D820684068D3
:100B2000C007F6D02068016821F00201016000F0E2
:100B30007FFB05460BE000F07BFB401B0A2806D933
:100B4000606A40F40030606284F82060D2E7206878
:100B500040688007EFD4207E0128206801683DD0DE
:100B600021F080010160607E01282068016838D092
:100B700021F040010160A07E01282068016833D087
:100B800021F020010160E07E0128206801682ED05C
:100B900041F010010160207F01282068016829D000
:100BA00021F008010160607F01282068016824D0DD
:100BB00021F004010160D4E902010843D4E90412E0
:100BC000114308436168491E08432168C861002039
:100BD0006062012084F82000002070BD41F0800197
:100BE000C0E741F04001C5E741F02001CAE721F02C
:100BF0001001CFE741F00801D4E741F00401D9E743
:100C000010B586B0044614216846FFF736FC1B4930
:100C1000206888422FD11A480021026842F00072F1
:100C20000260006800F000700590154810380268F6
:100C300042F0080202600068022200F008000590FD
:100C40000320CDE90210CDE9000209200490694695
:100C50000C4800F0E7F900220521132000F05AFBB0
:100C6000132000F049FB00220521142000F052FB64
:100C7000142000F041FB06B010BD000000640040ED
:100C800040380240000C02407047000010B5284A6E
:100C900001688AB0914204D107AB6A460021FFF790
:100CA000B0FD009A23492448A2F20122072A18D253
:100CB000BDF81C3012F0FF025CBA02EB420301EBFC
:100CC00083039C80BDF81E4064BADC80BDF82040E0
:100CD00064BA1C819DF822409C7202D10288521C89
:100CE0000280009AA2F20522072A13D2D2B2BDF8DE
:100CF0001C3002EB420201EB82015BBA8B80BDF833
:100D00001E2052BACA80BDF8202052BA0A819DF82E
:100D100022208A720188B1F5FA7F06D10021018074
:100D20004FF48051054800F075FA0AB010BD00007C
:100D300000640040E400002008000020001C024085
:100D4000704770477047000070B5044690F8200067
:100D5000012804D0606A40F40020606218E002209C
:100D600084F820002068016821F00101016000F092
:100D70005FFA05460EE000BF00F05AFA401B0A2851
:100D800008D9606A40F400306062052084F82000D1
:100D9000012070BD20684068C007EDD1606270BD61
:100DA0007047704770477047704770477047000042
:100DB0002DE9F84304464FF00009CDF80090634850
:100DC0004FF41651A56D0068B0FBF1F72E6894F84A
:100DD0005C10082000FA01F131420FD021680A6846
:100DE00052070BD50A6822F004020A6094F85C10DE
:100DF0008840A860606D40F00100606594F85C1068
:100E00004FF0010808FA01F0304208D02168496922
:100E1000090604D5A860606D40F00200606594F892
:100E20005C1004208840304208D021680968890796
:100E300004D5A860606D40F00400606594F85C1013
:100E400010208840304218D021680968090714D55D
:100E5000A86020680168490304D50068000308D52C
:100E6000A16C07E00168C90503D4016821F00801FD
:100E70000160216C09B12046884794F85C1020205D
:100E80008840304231D021680968C9062DD5A86054
:100E900094F8350005282068016806D0490347D535
:100EA000006800031DD4616C1CE021F01601016094
:100EB0002068416921F080014161206C08B9A06C73
:100EC00020B12068016821F00801016094F85C10ED
:100ED0003F208840A86084F8358084F83490216DE4
:100EE0001FE0E16B09B120468847606D00282BD0D8
:100EF000606DC00714D0052084F8350020680168B3
:100F000021F0010101600098401C0090B84203D814
:100F100020680068C007F6D184F8358084F83490E2
:100F2000E16C002910D001B02046BDE8F04308472D
:100F30000168C905D5D4016821F01001016084F869
:100F4000358084F83490CCE7BDE8F8835C0000205D
:100F50002DE9F041044600F06BF906465CB1022031
:100F600084F83500002584F834502068016821F0A9
:100F7000010101600DE00120BDE8F08100F058F9A9
:100F8000801B052805D920206065032084F83500E2
:100F9000F2E720680068C007F0D122681168204895
:100FA0000140D4E901031843D4E90336334318431D
:100FB00063691843A3691843E3691843236A184314
:100FC0000843616A042903D1D4E90B131943084388
:100FD000106020684069666A20F0070130460E43C1
:100FE000012704280CD1A06A0643E06A40B12046DC
:100FF000FFF7DCFA20B14020606584F83570BAE76D
:10100000206846612046FFF7BDFA94F85C203F2136
:1010100091408160656584F835700020ACE7000080
:101020003F8010F02DE9F84FDFF8BCA10022012528
:1010300003264FF00F090AF1040BAAF1040E00BFBA
:101040000B6805FA02F42340A34270D10F7907F030
:101050000307012F01D0022F16D187684FEA4208FB
:1010600006FA08FC27EA0C07D1F80CC00CFA08FCB9
:101070004CEA070CC0F808C04768A7430C79C4F3D2
:10108000001494403C4344600C79E443A4070AD024
:10109000C4684FEA420C06FA0CF7BC438F6807FAA3
:1010A0000CF72743C7600C7904F00304022C12D11B
:1010B000D40800EB840CDCF820405707FF0E09FA37
:1010C00007F824EA0804D1F8108008FA07F848EA7B
:1010D0000408CCF8208004684FEA420C06FA0CF7AA
:1010E000BC430F7907F0030707FA0CF727430760A3
:1010F0004C6814F4403F70D03C4C276847F480475C
:101100002760246822F0030704F480440094384CDC
:1011100007EB040CDCF8084897074FEA177809FA40
:1011200008F7BC43334FB84202D1002724E054E013
:10113000314FB84201D101271EE0304FB84201D1F2
:10114000022719E02E4FB84201D1032714E02D4F9A
:10115000B84201D104270FE02B4FB84201D1052737
:101160000AE02A4FB84201D1062705E0284FB842CD
:1011700001D1072700E0082707FA08F72743CCF832
:101180000878DAF800405746D1F804C09C435FEA7B
:10119000CC2C00D51C433C60DBF800405F46D1F806
:1011A00004C09C435FEA8C2C00D51C433C60DEF8F5
:1011B00000407746D1F804C09C435FEA8C3C00D5E0
:1011C0001C433C60084F083F3C68D1F804C09C4376
:1011D0005FEACC3C00D51C433C60521C102AFFF453
:1011E0002FAFBDE8F88F0000083C014044380240B2
:1011F00000300140000002400004024000080240AC
:10120000000C02400010024000140240001802408E
:10121000001C0240426921EA02030A4043EA0241FB
:10122000816170470AB1816170470904FBE70000E2
:101230000148806870470000500000200248816823
:101240000278114481607047500000200B4810B5AF
:10125000016841F400710160016841F4806101603E
:10126000016841F480710160032000F073F80F20E1
:1012700000F006F800F024F8002010BD003C024009
:1012800070B50D4D04464FF47A712878B1FBF0F03B
:101290000A490968B1FBF0F000F010FB48B9102CC6
:1012A00007D200222146501E00F034F800206C6066
:1012B00070BD012070BD0000500000205C000020C7
:1012C0000C4882B0016841F480410160006800F47C
:1012D000804000900748001F016841F08051016084
:1012E0000068002200F0805000900F21901E02B094
:1012F00000F010B844380240002809DB00F01F025B
:10130000012191404009800000F1E020C0F8001167
:1013100070470000F0B40E4B1B680C46C3F3022369
:10132000C3F10705042D00D90425191D072901D291
:10133000002300E0DB1E012606FA05F1491E2140CC
:1013400099409E40761E16403143F0BC01F033B800
:101350000CED00E0064900F0070208684FF6FF03B5
:10136000184040EA0220034A10430860704700001A
:101370000CED00E00000FA052DE9F0470E460500EF
:1013800065D0DFF81481D8F80000F7B200F007004C
:10139000B04207D288F80070D8F8000000F00700CB
:1013A000B04254D128683D4C810712D5400703D57F
:1013B000206840F4E05020602878000703D52068BA
:1013C00040F4604020602068A96820F0F0000843E5
:1013D00020602878C0072DD0304968680839012876
:1013E00012D0022813D0032811D0096889070029D8
:1013F0002DDA216821F0030101432160FFF718FF76
:10140000814641F2883A0EE009688903EFE70968EE
:101410008901ECE7FFF70CFFA0EB0901514502D968
:101420000320BDE8F0872068696800F00C00B0EB8D
:10143000810FEFD1D8F80010404601F00701B1420A
:1014400007D90770006800F00700B04201D0012002
:10145000E7E72878400705D52068E96820F4E050E0
:10146000084320602878000706D52068296920F401
:10147000604040EAC100206000F038F82168084A66
:10148000C1F30311515CC840064908600648006872
:10149000FFF7F6FE0020C4E7003C02400838024097
:1014A000E83C00085C000020540000200448054986
:1014B00000680968044AC1F38221515CC840704742
:1014C0005C00002008380240F83C00080448054948
:1014D00000680968044AC1F34231515CC840704752
:1014E0005C00002008380240F83C0008154810B5A0
:1014F000006810F00C02144813D01449042A0FD0CD
:10150000082A0ED10F4C241F2268236802F03F02E4
:101510005B0207D52068C0F38810A0FB010106E03C
:10152000084610BD2168C1F38811A1FB000100230A
:10153000FEF7FAFE2168C1F30141491C4900B0FBE6
:10154000F1F010BD083802400024F400001BB70081
:101550002DE9F84F04006ED02078DFF84C93C007D7
:10156000A9F104054AD009F104000168C1F3810121
:10157000012908D00068C0F3810002280AD1D9F8F7
:101580000000400206D52868800337D5606800282F
:10159000E1D033E06068B0F5803F10D0B0F5A02F07
:1015A000286810D020F480302860286820F480203B
:1015B00028606068A8B1FFF73BFE06460DE028688A
:1015C00040F48030F4E740F480202860F7E700BF63
:1015D000FFF72EFE801B642873D828688003F7D598
:1015E0000CE0FFF725FE064605E000BFFFF720FEF2
:1015F000801B6428F0D828688003F7D42078DFF8AF
:10160000AC8280074FF0000A3ED5A748001D016854
:1016100011F00C0F08D00068C0F3810002280BD134
:10162000D9F80000400207D42868800716D5E06882
:10163000012800D112E033E1E068B8B10120C8F818
:101640000000FFF7F5FD064605E000BFFFF7F0FDDF
:10165000801B0228C0D828688007F7D52868216930
:1016600020F0F80040EAC10028600DE0C8F800A0B2
:10167000FFF7DEFD064604E0FFF7DAFD801B0228D7
:101680001FD828688007F7D42078000722D5864F16
:1016900087486169703771B101210160FFF7C8FDAA
:1016A000064604E0FFF7C4FD801B022809D838680D
:1016B0008007F7D50EE0C0F800A0FFF7B9FD064699
:1016C00005E082E0FFF7B4FD801B02287DD8386872
:1016D0008007F7D42078400768D5DFF8CCB1002721
:1016E0000BF13C0BDBF80000C0000BD4DBF8001062
:1016F00041F08051CBF80010DBF80000012700F02A
:10170000805000906B4E3068C00510D4306840F4B3
:1017100080703060FFF78CFD009005E0FFF788FDDA
:101720000099401A022850D83068C005F6D55E4EA0
:10173000A0686C3601280FD00528306810D020F042
:1017400001003060306820F004003060A068B8B15B
:10175000FFF76EFD00900FE0306840F00100F4E705
:1017600040F004003060F7E7FFF762FD0099411A8E
:1017700041F28830814266D830688007F4D50EE0A7
:10178000FFF756FD009007E0FFF752FD0099411A60
:1017900041F28830814256D830688007F4D42FB1A6
:1017A000DBF8001021F08051CBF80010A069C8B31D
:1017B0003D49091D0968C1F3810102294AD0022867
:1017C000504607D0C8F8600000E03CE0FFF730FD6D
:1017D00004463BE04746C8F86000FFF729FD06468F
:1017E00005E000BFFFF724FD801B02282BD82868E6
:1017F0008001F7D4D4E907010843A16A2E4A4908B9
:1018000002EB0141626A41EA8211084394F82C100C
:1018100040EA0161C9F8001001203866FFF708FDB1
:10182000044606E03EE000BFFFF702FD001B022871
:1018300009D828688001F7D534E000BFFFF7F8FC2D
:10184000001B022802D90320BDE8F88F2868800118
:10185000F4D427E00128F7D0D9F80000E26900F4B9
:10186000800191421CD1226A00F03F01914217D1C0
:1018700047F6C071626A0140B1EB821F10D1A26AC3
:101880004FF0FF3300F4403103EB5202B1EB024F53
:1018900006D194F82C1000F07060B0EB016F01D00D
:1018A0000120D1E70020CFE7043802400000474282
:1018B000800E4742007000400000FFFF10B5401E40
:1018C000B0F1807F01D3012010BD4FF0E0246061B2
:1018D0000F21601700F06FFD0020A061072020613C
:1018E000002010BD70B5040004D094F83D00002520
:1018F00010B106E0012070BD84F83C50204600F095
:1019000023F8242084F83D002068C16821F40051A8
:10191000C160204600F06EFC2068016921F490410E
:1019200001612068416921F02A0141612068C16894
:1019300041F40051C1602564202084F83D0084F802
:101940003E00002070BD000070B586B00646142130
:101950006846FEF792FD25493068884243D1244805
:101960000025016841F480210160006800F48020B6
:1019700005901F481038016841F0040101600068BB
:10198000694600F0040005904FF44060009002208A
:10199000CDE9010503200390072004901548FFF7C7
:1019A00041FB164C144820604FF00060C4E901056B
:1019B0004014C4E9035080106561C4E906504FF437
:1019C0004030C4E908052046FFF7C2FA08B1FEF727
:1019D00018FEB463002205212720A663FFF79AFCB6
:1019E0002720FFF789FC06B070BD000000480040CA
:1019F0004038024000080240286002406405002090
:101A0000FEE700000F4810B50D4901600321416059
:101A100000214FF410228160C0E903124FF400123C
:101A20004261017641768176C17601774177FFF791
:101A30005AF8002803D0BDE81040FEF7E2BD10BD03
:101A400000640040F8040020094808B5016841F42A
:101A5000001101600068002200F4001000900521D0
:101A60000C20FFF757FCBDE808400C20FFF744BCF2
:101A70003038024010B596B01C2211496846FEF776
:101A8000CAFC0021684600F02DFD0E4C0C491C22BA
:101A900020601C3107A8FEF7BEFC002107A800F05B
:101AA00021FD074960601C2238310EA8FEF7B3FC07
:101AB00000210EA800F016FDA06016B010BD0000B9
:101AC0008C3C00084000002070B586B014216846A8
:101AD000FEF7D3FC1A480025016841F001010160BE
:101AE000016801F001010591016841F00801016000
:101AF000016801F008010591016841F004010160ED
:101B0000016801F004010591016841F08001016064
:101B100000680C4E00F080004FF4E0540590002265
:101B200021463046FFF77EFB0120CDE90040022030
:101B3000CDE9020569463046FFF774FA06B070BD7C
:101B400030380240001C02400D4810B50B490160BE
:101B50000C49416000214FF480628160C0E90312AA
:101B60000C22C0E90521C161FFF7BCFE002803D0AB
:101B7000BDE81040FEF745BD10BD00000048004024
:101B800020050020A0860100FEE7FEE730B5144BDB
:101B90001C68656945F0400565611B68DC6844F0B8
:101BA0001004DC600F4B1C68256825F001052560DA
:101BB0001C682568ED07F7D11D680B4CAC601C68EC
:101BC000E06018680161186842601868016841F4B3
:101BD000802101601868016841F00101016030BD99
:101BE0002005002064050020044800400122D102A5
:101BF0000348FFF717FB012000F068FCFBE700003B
:101C0000001C024000F018FF0A4900200A4C4880DE
:101C1000C8814883094EC8844FF49677012500BFD8
:101C2000B4F90600B84200DD3570012000F04EFC2A
:101C3000F6E70000E4000020C405002000000020BA
:101C40002DED108B8CB000249FEDFE8AFE4D00BF61
:101C500004EB8400F0EE481A00EBC40005EB8000B2
:101C6000B0EE612AB2EE041AF7EE000AB3EE0E0AE5
:101C700000F0B5FC641CE4B2042CE9D3A8469FED47
:101C8000F3CBDFF8D0B39FEDF4DB9FEDF5BB9FED19
:101C9000F68B9FEDF7AAF74EDFF8DCA305F1D00035
:101CA000F64C4FF0000901905FF0000505EB450090
:101CB00004EB8007B7F9060000EE100A06EB85007A
:101CC000F8EEC00A90ED000A05EB850000EBC501B7
:101CD00008EB810000F030FCBDEEC00A6D1CEDB2D7
:101CE00010EE100A042D7880E0D3E5480078012832
:101CF00025D0A4F80290A4F80E90A4F81A90A4F8A5
:101D0000269000BFBAF90000A0F2CE3164297CD839
:101D1000B4F9360000F10A01152977D3B0EE4A0A6A
:101D200086ED040A00EE900A0198F8EEE00A00F051
:101D300003FCBDEEC00A10EE100A6086CEE1BAF9CF
:101D400004005746A0F2CE3064283AD8B7F906000E
:101D5000A0F2CE30642834D8B7F9080040F23241FE
:101D600088422EDC40F2CE3188422ADB5FF000054B
:101D700005EB450004EB8007B7F9060000F5347168
:101D8000B1F5B46F17D906EB850100EE900AB0EEFD
:101D90004A0A81ED000A05EB850000EBC501F8EE6B
:101DA000E00A08EB810000F0C7FBBDEEC00A10EEB0
:101DB000100A788001E0A7F802906D1C042DD7DB93
:101DC000A0E7B7F9080040F2324188420BDDA0F5E8
:101DD0008060404301F085FC41EC100B00F0FBFA01
:101DE00053EC1C2B10E040F2CE31884216DAA0F5FD
:101DF0008060404301F075FC41EC100B00F0EBFA01
:101E00009FEDA01B53EC112B01E082E164E151EC4A
:101E1000100B01F0A3FACBE9000101E08BED00DB30
:101E20009FED9AEB9BED000B53EC1E2B51EC100B2E
:101E300001F06EFC41EC100B8BED000B01F022FC6D
:101E400005B2B7F90600B7F90410A0F58060404369
:101E5000A1F5806101FB010001F043FC41EC100B96
:101E600000F0B9FA8B48B0EE409AF0EE609A80ED3F
:101E7000000BB7F90600A0F5806001F032FC53ECCE
:101E8000192B01F06BFA844AC2E90001B7F904008A
:101E9000A0F5806001F025FC53EC192B01F05EFAEF
:101EA0007E4F53EC1C2BC7E9000151EC190B01F0DC
:101EB00055FA53EC1E2B01F02BFC794AC2E90001C4
:101EC0009BED000B53EC1D2B51EC100B01F09EFB16
:101ED000714897ED00FB90ED00EB53EC1F2B51EC9C
:101EE0001E0B5ED101F0DEFD074641EC190B6C487C
:101EF000049153EC1B2B90ED000B51EC100B01F0F7
:101F000007FC054653EC192B029101F001FC53EC40
:101F1000182B01F0FDFB01F03BF9F060049941EC56
:101F2000117B029953EC112B41EC105B51EC100B1F
:101F300001F0EEFB9FED5B9B53EC192B01F0E8FBEE
:101F400001F026F9706053EC1F2B51EC1E0B01F0D1
:101F500051F941EC100B04910299074641EC115BD9
:101F600053EC102B51EC110B01F0D2FB53EC182B5E
:101F700001F0CEFB01F00CF93060049941EC117BCB
:101F8000029953EC112B41EC105B51EC100B01F05A
:101F9000BFFB53EC192B01F0BBFB01F0F9F8B0606B
:101FA000B0E601F07FFD41EC190B3D4853EC1B2BD3
:101FB00090ED000B51EC100B01F0AAFBCDE90210E3
:101FC00053EC192B01F0A4FB53EC182B01F0A0FBF0
:101FD00001F058FB07B2354853EC1F2B078051EC3A
:101FE0001E0B01F007F941EC100BDDE9020140EC9A
:101FF000111B53EC102B51EC110B01F089FB53EC2E
:10200000182B01F085FB01F03DFB294900B2088047
:10201000791B01EBD171491000EE101A7919494270
:10202000B8EEC00A01EBD171491086ED030A00EE4B
:10203000101A411B01EBD171B8EEC00A491086EDB0
:10204000010A37E00000804638010020000000004F
:1020500000A08440380000200000000000000000C4
:1020600039B4C876BE9FE63F000000000000E03FA4
:1020700000000000C8000020C4050020E40000208B
:10208000000000200000000000A084C0000000004C
:1020900000E3C140100000201800002020000020B4
:1020A00028000020000000000000E0BF30000020F9
:1020B0003200002000EE101A28444042B8EEC00A58
:1020C00000EBD070401086ED000A00EE100AB8EE6A
:1020D000C00A86ED020A15E6A4F83290B4F926008B
:1020E0000090B4F91A30B4F90E20B4F902100020AF
:1020F00000F008FDCDF80090B4F94A30B4F93E2064
:10210000B4F93210012000F0FDFC012000F0DEF9EE
:10211000CAE5A0F5806000EE100A0648B8EEC00AD5
:10212000D0ED000A20EE200A86ED040AB4F936004C
:10213000F8E500000400002010B5FFF77FF800F07C
:1021400051FF012803D0BDE8104000F0DDBE10BDF6
:1021500030B593B030216846FEF78FF914210CA8F2
:10216000FEF78BF91D480025016841F080510160A0
:10217000006800F0805011901948016841F48041D6
:1021800001600068022400F480401190012000905A
:10219000000401908001CDE9064006200890A820A7
:1021A000CDE9090404200B906846FFF7D1F908B186
:1021B00072B6FEE70CA90F2081E831004FF4A05061
:1021C0000F904FF48050109005210CA8FFF7D4F821
:1021D000002801D072B6FEE713B030BD403802408F
:1021E000007000400248016841F4700101607047CE
:1021F00088ED00E070B5044600680169E26821F4EA
:102200004051114301612169A068E2690843616995
:10221000114308432168CA6849F20C639A43024398
:10222000CA6020684169A26921F44071114341618B
:1022300031492068884202D03049884202D1FFF7F4
:1022400045F901E0FFF732F9E2690023192164251D
:102250003226B2F5004F626828D0A0FB0101930F2F
:102260009200FEF761F80146B0FBF5F06FF018023E
:10227000504301EB800006EB0010B0FBF5F000F0DE
:10228000F002B1FBF5F002EB0012B1FBF5F06FF0DC
:102290001803584301EB800006EB0010B0FBF5F08B
:1022A00000F00F0021681044886070BDA0FB0101A0
:1022B00092185B41FEF738F80146B0FBF5F00201D9
:1022C000B1FBF5F06FF01803584301EB800006EB0B
:1022D000C000B0FBF5F000F0F80002EB4002B1FBEB
:1022E000F5F0584301EB800006EBC000B0FBF5F0C1
:1022F00000F00700D6E70000001001400014014084
:10230000264818B400680168890604D50168406849
:10231000009018BC704722490968C906F9D50168C0
:102320004068204A0090106801684FF024030C03B5
:102330001D49046824F00104046016D41068446840
:10234000C4F12404A4B20C8043601068016841F415
:10235000002101601068016841F001010160122C48
:10236000D7D1124901F1160015E014686068C0F178
:10237000240080B2088063600D498B6A23F4002337
:102380008B6211680A6842F001020A601228C0D10B
:10239000064901F13A0018BC00F056BB20050020A8
:1023A00000480040640500204C000020C4050020C7
:1023B00000600240FEE70907090E002804DB00F177
:1023C000E02080F80014704700F00F0000F1E020DA
:1023D00080F8141D704700B52DED048BB0EE409AC7
:1023E000F0EE609A83B051EC190B01F08FFA41ECDA
:1023F000180B18EE100A18EE901A8DED008B0028BD
:1024000018BF0120084320F00040C0F17F6000F1B8
:10241000E040C00F14D019EE101A19EE900A8DED9D
:10242000009B002918BF0121084320F00040C0F1A3
:102430007F6000F1E040C00F04BF0120FEF74CF8C0
:10244000B0EE480A03B0F0EE680ABDEC048B00BDA4
:1024500000B58BB000210122CDE906120391049151
:10246000CDE9082105910091019102916946FEF79D
:1024700041F90448FEF768FC02210248FEF7C3F860
:102480000BB000BDF8040020FEF7E0FEFFF760FE91
:10249000FFF71AFBFFF7D8FAFFF7B4FAFFF754FB80
:1024A0000648FFF7D5FF01221146901EFEF732FFC6
:1024B000FFF7E0FA00F011F8FEE70000F804002052
:1024C00001460020842900D0C81C704710B500B90F
:1024D000012000F00DFC002010BD10B500F02EFC16
:1024E000002010BD7FB50D4604464169B0F90800D3
:1024F00081B1A16971B1FFF7E3FFD4E905128DE85D
:102500000700D4E900102B46226900F040FD03903B
:1025100004B070BDFFF7D4FF03A9CDE90001208A04
:102520002B4682B2D4E9001000F004FD012801D04E
:102530000020EDE70398EBE780ED050AC0ED060A01
:1025400090ED071A70EE600A80ED081AC0ED070AD8
:1025500090ED000A60EE201AC0ED091A90ED0A0A0B
:1025600090ED012A02EE200A70EEC10A80ED0A0AFF
:1025700090ED021A20EE812A80ED0B2AD0ED030A9D
:10258000B1EE601AB4EEC10AF1EE10FA02D8B0EE64
:10259000410A06E0B4EEE00AF1EE10FA01DBB0EE1B
:1025A000600A80ED0A0A31EE800A30EE020A80ED00
:1025B0000C0AD0ED040AB1EE601AB4EEC10AF1EED5
:1025C00010FA02D8B0EE410A06E0B4EEE00AF1EEED
:1025D00010FA01DBB0EE600A80ED0C0A704780EC67
:1025E000050A70472DE9F041184C0F460546E6688C
:1025F0002068001D00F0B4FA38B9206890F82C105B
:1026000001208840216981432161681C07D137B1CD
:102610002168BDE8F0410E48091D00F0E5BA2068C8
:102620003544B5424560216805D2A06BBDE8F04154
:10263000091D00F0C1BA606B091D00F0BDFAA06A67
:10264000854200D2A562BDE8F08100006000002054
:10265000000700202DE9F041054600F0D1FA2E4C8C
:10266000A068401CA06020682C4F10B1606940B386
:102670002DE02560A068012829D1002606EB860000
:1026800007EB800000F08AFA761C072EF6D3234869
:102690008C3000F083FA2148A03000F07FFA1F4808
:1026A000B43000F07BFA1D48C83000F077FA1B48C0
:1026B000DC3000F073FA19488C3060631430A0638A
:1026C00005E02068E96AC06A884200D82560606A2F
:1026D000401C6062E96A0120226988401043206141
:1026E00001EB810007EB8000291D00F07DFA00F06E
:1026F000A7FA606900280CD02068E96AC06A88429D
:1027000007D207494FF080500860BFF34F8FBFF3E7
:102710006F8FBDE8F08100006000002024060020DB
:1027200004ED00E010B5044690F8510058B10128BE
:102730000CD002280FD0502080F31188BFF34F8FA8
:10274000BFF36F8FFEE7206B00F08EFA2046BDE8E6
:10275000104000F089BA10BD10484FF47051420784
:1027600006D0C01D0D4920F00700411AC1F5705177
:102770000B4A00230144C2E900030839183A21F04A
:10278000070111604B600B600B1AC0E900139360E6
:102790004FF0004053605061704700001407002064
:1027A000B4000020144E154CA6F1C8074FF0805815
:1027B000DFF84C9012E000BF00F022FAF068C56824
:1027C000281D00F0CDF9A068401EA0606068401E82
:1027D000606000F035FA2846FFF7A4FF6068002823
:1027E000EAD138680128F9D9C9F80080BFF34F8FC2
:1027F000BFF36F8FF2E70000EC06002060000020BE
:1028000004ED00E02DE9F0479A46DDE909848146B0
:102810006FF00303206B03EB82021044089E20F04C
:102820000707780707D0502080F31188BFF34F8F38
:10283000BFF36F8FFEE7002561B1002023180A5C0B
:1028400083F834200A5C12B1401C1028F6D384F8B7
:10285000435001E084F83450072E00D30626E66288
:10286000C4E91165201D00F0A4F904F1180000F07E
:10287000A0F92461C6F107006462A061E56484F8F0
:10288000505052464946384600F0C0F82060B8F132
:10289000000F01D0C8F80040BDE8F08730B51149FD
:1028A00000E011460A688242FBD34B685C18844200
:1028B00003D1406818444860084643681C18944295
:1028C00009D1084C183C2468A24209D052681A4425
:1028D00042600A6812680260814200D0086030BD20
:1028E0000460F9E7B40000200648416B096829B18B
:1028F000416BC968C9684968816270474FF0FF3110
:10290000FAE700006000002008484068401C4FF0D3
:10291000500080F3118804D0BFF34F8FBFF36F8F47
:10292000FEE7BFF34F8FBFF36F8FFEE7BC000020C1
:102930002DE9F0410546002700F036FA324E3068A6
:1029400008B9FFF709FF706905424ED1C5B30835D4
:1029500068070ED005F00700C0F1080005446807BD
:1029600007D0502080F31188BFF34F8FBFF36F8FD4
:10297000FEE72DB37068854237D8234818300146EA
:102980000C6801E020460C466168A94202D2216829
:102990000029F7D131688C4227D00768216801608F
:1029A00060680837411B10290FD96019420708D009
:1029B000502080F31188BFF34F8FBFF36F8FFEE776
:1029C00013E041606560FFF769FF61687068401A55
:1029D0007060B268904200D2B0607069014300201C
:1029E000C4E90001F068401CF06000F06FFB78075C
:1029F00007D0502080F31188BFF34F8FBFF36F8F44
:102A0000FEE73846BDE8F0819C00002010B5031FAA
:102A10004FF080741C601B1F21F001011960191F09
:102A2000044B0B6014390A60091F6FF0020244382E
:102A30000A6010BD0929000802492422A1F12400DE
:102A4000FFF7A4B8FE050020002856D0002954D076
:102A50000278437842EA0322C2F30A020A804278EB
:102A60008378D20842EA4312C2F30A024A8082788B
:102A7000C378920942EA8302037942EA8322C2F3CD
:102A80000A028A8002794379520842EAC312C2F3E9
:102A90000A02CA804279C2F301128A72427992090B
:102AA000CA728279C37942EA03228A81027A437A1E
:102AB00042EA0322CA81827AC37A42EA03220A8264
:102AC000027B8A74427BCA74827BC37B42EA032204
:102AD0008A82027C407C42EA002008810748018803
:102AE000491C89B20180B1F5FA7F06D1002101802D
:102AF0004FF480610248FEF78DBB70470A0000204A
:102B0000001C024010B588B00A9C18B340F2FF20A8
:102B1000029000200490059008200690080A8DF885
:102B200000008DF80110100A8DF80200180A8DF8C7
:102B300004008DF80530200A8DF806008DF803207A
:102B40008DF8074001236A4602A90448FDF76DFD90
:102B500008B010BD4FF40070DAE70000F804002060
:102B6000D0E9013201699A60D0E901235A604A68CC
:102B7000824201D182684A60002202610868401ED8
:102B80000860086870470000034B036003F15400BD
:102B90000860802010607047A402002000F1080146
:102BA0004FF0FF32C0E90112C160016100210160F4
:102BB000704700210161704730B50B685A1C02D084
:102BC00000F1080202E0026904E022465468256828
:102BD0009D42FAD953684B6099608A6051600861E0
:102BE0000168491C016030BD42684A6093688B608F
:102BF00093685960916008610168491C01607047E1
:102C0000502080F31188BFF34F8FBFF36F8F0A49B5
:102C10004868401C486001280CD10848006810F042
:102C2000FF0F07D0502080F31188BFF34F8FBFF301
:102C30006F8FFEE770470000BC00002004ED00E04D
:102C40000849486828B1401E486001D180F31188C6
:102C50007047502080F31188BFF34F8FBFF36F8F01
:102C6000FEE70000BC00002070B500282AD0164DF9
:102C7000A0F1080460686969084207D1502080F318
:102C80001188BFF34F8FBFF36F8FFEE722683AB111
:102C9000502080F31188BFF34F8FBFF36F8FFEE793
:102CA0008843606000F080F8606869680844686084
:102CB0002046FFF7F3FD2869401C2861BDE87040FD
:102CC00000F004BA70BD00009C0000204FF0E0202E
:102CD00000210161816105494FF47A720968B1FBF5
:102CE000F2F1491E41610721016170475C0000203B
:102CF00010B5020014D00F48006B38B1502080F39B
:102D00001188BFF34F8FBFF36F8FFEE700F04CF8D1
:102D100000211046FFF766FC00F0D8F9002807D123
:102D200005494FF080500860BFF34F8FBFF36F8F9E
:102D300010BD00006000002004ED00E010B586B07A
:102D40000024039405AA04A903A80494FFF71CFF18
:102D5000DDE903010094CDE9011000230EA1104824
:102D6000059A00F014F90F490028C86211D05020CC
:102D700080F31188BFF34F8FBFF36F8F4FF0FF3099
:102D8000886201204861CC6006B0BDE8104000F0C8
:102D900041B806B010BD000049444C450000000099
:102DA000A5270008600000200248016B491C016350
:102DB00070470000600000201448016B11B1012130
:102DC000C16170470021C1610169B1FA81F1C1F1AE
:102DD0001F0101EB81020E4951F822306BB101EB6A
:102DE000820101F108034A6852684A609A4201D19F
:102DF00052684A60D16801607047502080F31188A2
:102E0000BFF34F8FBFF36F8FFEE70000600000201D
:102E1000240600201CB537480168374A914207D183
:102E2000502080F31188BFF34F8FBFF36F8FFEE701
:102E300000683149491E884207D1502080F311882B
:102E4000BFF34F8FBFF36F8FFEE72C4908780190D7
:102E5000FF20087008788DF800009DF800009DF8AC
:102E6000002000F0F000904207D0502080F311883D
:102E7000BFF34F8FBFF36F8FFEE79DF80000204C2C
:102E800000F0500020700720A06005E09DF80020B1
:102E900052008DF80020401E9DF800201206F5D447
:102EA000A060032807D0502080F31188BFF34F8F14
:102EB000BFF36F8FFEE74FF44070A0600198087079
:102EC0000C482030016841F470010160016841F054
:102ED00070410160FFF7FAFE00206060FDF7C8F95D
:102EE0000848016841F040410160FDF7ADF900205C
:102EF0001CBD000000ED00E071C20F4100E400E0E5
:102F0000BC00002034EF00E010B5502080F31188A1
:102F1000BFF34F8FBFF36F8F00F072F818B1044901
:102F20004FF080500860002080F3118810BD000031
:102F300004ED00E02DE9FF5F8346DDE90E87994649
:102F400016468A469000FFF7F3FC05001CD054207B
:102F5000FFF7EEFC040014D00020256384F8510034
:102F6000CDE90240CDE900874B46324651465846EE
:102F7000FFF748FC2046FFF76DFB012004B0BDE8D9
:102F8000F09F2846FFF770FE4FF0FF30F6E7F0B5F0
:102F900085B0DDE90B640A9DA6B1DCB1542700972A
:102FA0002663022684F85160002604AFCDE902466C
:102FB000CDE90057FFF726FC2046FFF74BFB0498AE
:102FC00005B0F0BD502080F31188BFF34F8FBFF3E1
:102FD0006F8FFEE7502080F31188BFF34F8FBFF350
:102FE0006F8FFEE70548416919B1006B18B10020E9
:102FF00070470120704702207047000060000020E9
:103000002DE9F0412F4C0026206B28B1A069401C0F
:10301000A0613046BDE8F081E5686D1CE56013D124
:10302000606B006838B1502080F31188BFF34F8F78
:10303000BFF36F8FFEE7606BA16B6163A063206AD3
:10304000401C2062FFF750FCA06ADFF87C808542BC
:1030500009D3606B0068A0B1606BC068C76878680E
:10306000854211D2A0622068C06A00EB800158F846
:103070002100012800D90126E0690028C9D00126D5
:10308000C7E74FF0FF30EDE7381DFFF769FDB86A7D
:1030900018B107F11800FFF763FDF96A01202269F2
:1030A00088401043206101EB810108EB8100391D4C
:1030B000FFF79AFDF86A2168C96A8842C9D30126D8
:1030C000C7E7000060000020240600202DE9F0473B
:1030D0002C4D00242746286B38B1FFF791FD286B53
:1030E000401E2863286B40B146E0502080F31188D1
:1030F000BFF34F8FBFF36F8FFEE7A968224E012009
:10310000D1B3A6F1B40980463068E8B1F068C4686C
:1031100004F11800FFF724FD201DFFF721FDE06AF0
:103120002A6908FA00F11143296100EB800109EBDB
:103130008100211DFFF758FDE06A2968C96A8842AD
:10314000E2D3C5F81C80DFE70CB1FFF7CDFBAC691B
:1031500044B14646FFF754FF00B1EE61641EF9D159
:103160000020A861E86938B10849012738070860DC
:10317000BFF34F8FBFF36F8FFFF762FD3846BDE897
:10318000F087000060000020D806002004ED00E079
:1031900021F00042A2F16052B2F5801F01F000431D
:1031A00028BFD2F17F6C0BD95FEA001C43EAC20250
:1031B00042EB507018BF704728BF20F001007047E5
:1031C000B2F5801FBCBF184670474FEA410C1CF592
:1031D000001F02D2084600F054BD70B500F042FB5B
:1031E00000000089FFF7F6BF4FF00040A0F5800017
:1031F0007047000010B591EA030F48BF83F0004309
:1032000000F15884841A71EB030C05D2121943EBB8
:103210000C03001B61EB0C01DFF824E14FEA1154B1
:10322000A4EB135C1EEA430F18BF9EEA445F73D001
:1032300023EA0E03DCF1200E21EA045143F480134B
:1032400032D322FA0CFE10EB0E0023FA0CFE41EBF7
:103250000E01CCF1200E03FA0EFE10EB0E0051F120
:103260000001B1F5801FCCF1200E32D201EB0451E8
:1032700012FA0EF2BDE8104058BF7047401C38BF2C
:103280005FEA420218BF7047002814BF20F0010017
:1032900041F100014FEA410313F5001F38BF7047A9
:1032A000A1F1C04100F02CBB012A43EB0302ACF1B9
:1032B000200CDCF11F0E32BF4FF0000E23FA0CF38E
:1032C00010EB030041EB0451B4EB115FD0D0A1EB44
:1032D000045101F5801149085FEA300001EB045107
:1032E0000ED350F1000038BF12FA0EFE08D1BDE82F
:1032F0001040C9E7401C38BF5FEA4202CAD1C3E7A9
:10330000BDE810404FEA410313F5001F38BF704776
:10331000A1F1C04100F0F4BA9EEA445F08D011EA7E
:103320005E0FBDE8104004BF01F00041002070476F
:10333000BDE8104070B500F095FA00BF64FBBE3EDA
:103340000000E0FF491058BFC1F140415B1058BF79
:10335000C3F140438B42EFF3008070472DE9C04139
:1033600030B4DFF8A0C23CEA111418BF3CEA1314D1
:1033700000F0EC8081EA03051CEA111444EAD574DC
:1033800018BF1CEA131500F0C780A4EB05044FF02A
:10339000004545EAC12145EAC32341EA505143EAC9
:1033A000525304F17F74994204F500344FEAC0206F
:1033B0004FEAC22208BF904200F09C804FEA13659A
:1033C0000FF24016765D4FEA134506FB05F7C7F18D
:1033D000807706FB07F74FEAD737A7FB03687642EB
:1033E000C8F58038A7FB06CE38BFA8F1010807FB57
:1033F00008E64FF0000EA6FB028CE6FB03CEDCF1E4
:10340000000CCEF1004E38BFAEF1010EA6FB0C58F9
:103410004FF000074FF00005E6FB0E87A1FB08C642
:10342000A0FB07CE16EB0E0645F10005E1FB076594
:1034300015F1E04E7EBFA4F580345FEA46066D418B
:1034400016F1800745F100054FEA17274FEA066697
:1034500047EA0567A6F1DE46B6F1805F4FEA15251B
:103460001FD9384624F0010C05EBC471BCF1FE6F86
:1034700001EB0C1102D8F0BCBDE8008124425CBF16
:1034800001F5801E9EEAC47F02D4F0BCBDE8008135
:10349000244238D4F0BCA1F1C041BDE8004100F0A5
:1034A0002FBA4FEAD22242EA43524FEAD323A7FB74
:1034B00002864FEAD02040EA415007FB03661EEA2D
:1034C0000E0F4FEAD12105FB026658BFA6EB00564E
:1034D000B6EB00564FEA520E4EEAC37E18EB0E0EC4
:1034E00056EB530EBDD518EB02085E417F1C55F11B
:1034F0000005B6E74FF480154FF000074FF00006C7
:103500004FF00008ADE7F0BC4FF0000001F1C04102
:1035100001F00041BDE8008111EA0C1F0CEA13150F
:1035200000D00CE013EA0C1F00F025804FF00000E3
:10353000F0BC81EA030101F00041BDE80081F0BC6C
:10354000BDE8004181EA030100F0DAB9F0BCBDE852
:10355000004170B500F086F9097EFC3E00F007B826
:1035600081EA03014FF0000001F00041704781EA59
:10357000030100F0C5B9F0BCBDE800414FF0000008
:1035800021497047FFFDFBF9F7F5F4F2F0EEEDEBA2
:10359000E9E8E6E4E3E1E0DEDDDBDAD8D7D5D4D351
:1035A000D1D0CFCDCCCBCAC8C7C6C5C4C2C1C0BF9D
:1035B000BEBDBCBBBAB9B8B7B6B5B4B3B2B1B0AFA3
:1035C000AEADACABAAA9A8A8A7A6A5A4A3A3A2A187
:1035D000A09F9F9E9D9C9C9B9A9999989797969542
:1035E00095949393929191908F8F8E8E8D8C8C8BDE
:1035F0008B8A898988888787868585848483838266
:10360000828181800000FF070000F87F51EA030CEF
:1036100017D41CF5801F58BFBCF5801F00F1068031
:10362000994218BF704708BF9042704707D711F5FD
:10363000801F58BF13F5801F19D4994270478942E3
:1036400070471CF5801F08D5BCF5801FF7D58B424D
:1036500018BF704708BF824270474FF4001C1CEB34
:10366000410F38BF1CEB430F01D28B42704770B53E
:1036700000F0F8F8922449004FF000514FF08053C9
:10368000FFF760BE4FEA41034FEA5353A3F580634F
:10369000D3F11E03C8BFD3F1210C0CDD4FF0004263
:1036A00042EAC12242EA505232FA03FC8CEAE17C3F
:1036B000ACEBE1707047102BC4BF0020704703F5DE
:1036C000787CBCF1FF3F04D06FF0004282EA210019
:1036D000704770B500F0C6F849922480002070470A
:1036E000F2E710F0004248BF4042B0FA80F310FA0F
:1036F00003F10AD0C3F11D0303F580634FEA415083
:1037000002EB035202EBD12170474FF000007047EB
:10371000DFF848C170B51CEA111E1EBF1CEA131564
:103720009EEA0C0F95EA0C0F00F06F8081EA03040B
:1037300023EA4C134EEAD47E21EA4C1141F4801165
:1037400043F48013AE44A1FB024CA0FB0365AEF131
:103750007F7E361955EB0C05A1FB034C4CF10003A1
:10376000A0FB021C16EB0C06654153F10003094255
:1037700018BF46F0010613F4007F0BD14FEA033166
:103780004FEA0530340341EA155140EA16506FF014
:1037900003020AE04FEAC3214FEAC520F40241EADE
:1037A000555140EA56506FF0020202EB2E4201EBF7
:1037B000025585EACE710AD05FEA440C18BF24F0A6
:1037C000004450F1000041F1000120EAD47040F2C1
:1037D000FE7C624500D270BDA84214BF4FF0804409
:1037E0004FF04044002E08BF0024BEF1806FA8BFF8
:1037F000A1F1C041BDE8704080F282804FF000002E
:1038000001F1C04101F0004170479EEA0C0F0CEA43
:10381000131518BF95EA0C0F06D04FF0000081EA8F
:10382000030E0EF0004170BD00F01CF88900013E4F
:1038300000F007B800F009B84FEA430C5FEA5C5C9F
:1038400008D081EA030100F05BB84FEA410C5FEA5F
:103850005C5CF6D14FF00000014970470000FF07A3
:103860000000F87F0EF1020E2EF0030E5EF8046BDE
:10387000364205D4012A43EB030515F5001F12D883
:10388000012841EB010C1CF5001F0CD80ED14FEAAA
:10389000D17C15F5001F0CEB4C0C0CF1020C08BF91
:1038A0004CEBD37C04E04FF0080C01E04FEAD37CF2
:1038B0000CEB4C0526FA05F606F00706B6F1040CEB
:1038C00006D20EEB860CBDE870404CF0010C604750
:1038D000DFE80CF0090B02024FF000414FF000004E
:1038E000A1F5002170BD19461046012851EB0104D5
:1038F00018BFD4F5001484BF002001F0004170BD52
:103900000808A0F500114FEA310170472DE9F04198
:1039100001F5801CBCF5001FC0F2A9804FEA115CC4
:1039200021EA0C510CF1FD0C41F480115FEA5C0CB2
:103930000CF5C07C01D34000494130A4890241EA22
:10394000905187028E0E0A0CA45D04FB04F602FB64
:1039500006F6C6F14046A4FB0662F60D46EA42268C
:1039600006FB06F4A4FB01235242C3F1404338BFD7
:103970005B1EA6FB02420024E6FB0324D20B42EAB4
:103980004446A6FB0623A1FB02E2A3FB07E4E3FBFC
:1039900061426442C2F1404E38BFAEF1010EA6FB57
:1039A00004234FF00002E6FB0E32A2FB0346340074
:1039B000E2FB6264A1FB06E6A4FB07E8E4FB6168A6
:1039C0007642C8F1405838BFA8F10108A2FB06E4CE
:1039D000A3FB08E5E2FB6854A1FB05E6A7FB04E8AE
:1039E000E1FB648618F1200556F10006A809A8F14C
:1039F0001B08B10908F03F08B8F10A0F40EA8660D9
:103A00001CD901EB0C51BDE8F08100BFFCF5EEE8DC
:103A1000E2DDD8D3CFCBC7C3C0BDB9B6B4B1AEAC6D
:103A2000A9A7A5A3A19F9D9B9A9896959392908FE5
:103A30008D8C8B898887868584838281A0FB006832
:103A400000FB01F208EB4208B8EB872807D53418D1
:103A500058EB0104D5D5401C51F10001D1E7341ACF
:103A600078EB0104CDD4401E71F10001C9E75FEA93
:103A70004C0C5FEA9C5C0DD105D34FF0000001F0C7
:103A80000041BDE8F081BDE8F04170B5FFF7EAFE06
:103A90006DDBFFBEBDE8F0414FF00000004970470C
:103AA0000000F87F10B591EA030F48BF83F0004390
:103AB0003FF5A8AB841A71EB030C07D212198CF0F6
:103AC000004C43EB0C03001B61EB0C01DFF8A4E19D
:103AD0004FEA1154A4EB135C1EEA430F18BF9EEA91
:103AE000445F00F0B08023EA6E03524221EA0451A1
:103AF000C3EB6E0338BF5B1EDCF1200E25D322FA28
:103B00000CFE10EB0E0043FA0CFE41EB0E01CCF163
:103B1000200E03FA0EFE10EB0E0051F10001CCF165
:103B2000200E29D412FA0EF201EB0451BDE8104028
:103B300058BF7047401C1CBFB2F1004F70470028AF
:103B40000CBF491C20F00100704712EB020E43EB42
:103B5000030218BF4FF0010E4EEA4202ACF1200CF6
:103B6000DCF11E0E54D943FA0CFE10EB0E0051F19D
:103B7000FF31CCF11E0ED5D50EF1010E12FA0EFE5C
:103B8000404141EB010101EB445C5FEA5C5C10D910
:103B900010EBDE7001EB045138BFBEF1004FBDE801
:103BA000104018BF704700280CBF491C20F00100CE
:103BB000704730D24FEAD42C11F5001124F4006480
:103BC0001BD0B1FA81F20B3AA41AA41ED2F1200341
:103BD000914030FA03F31943904001EBCC71002C73
:103BE00001EB0451BDE81040A8BF704701F1C0418E
:103BF0004FF0000001F000417047B0FA80F310FA76
:103C000003F100D110BDE41A173C4805C90AE4E7E6
:103C100001EB045110BD491001EB0451BDE8104007
:103C20004FEA300002E04FF0000170474A0008BF41
:103C30000042F8D0B2F5001F28BF704701F00041E4
:103C40004FF0000070479EEA445F07D011EA5E0F14
:103C5000BDE8104004BF002100207047BDE81040BF
:103C600070B5FFF7FFFD00BF40DFF63E83F0004177
:103C7000104670470000E0FF4FF04070E1EE100A80
:103C80007047FF2141EAD050C0057047003D000851
:103C9000ED1B000800000000000000008000000094
:103CA0000000000000000000043D0008051C0008A2
:103CB000FDFF000000000000800000000000000088
:103CC000000000000C3D0008411C0008FDFF000042
:103CD0000000000080000000000000000000000064
:103CE000000610160006101600000000000000007C
:103CF0000102030406070809000000000102030492
:103D00004C45440052655F6372746C0043616E5FA2
:103D1000333530385F646F776E0000003C3D00083B
:103D200000000020C8000000C4010008043E000894
:103D3000C8000020B0480000E001000800000000BA
:103D400000B01A4700000000000000000000000062
:103D50000000000000000000000000000000000063
:103D60000000000000000000000000000000000053
:103D70000000000000000000000000000000000043
:103D80000000000000000000000000000100000032
:103D900010000000000000000024F40000000000FB
:103DA0000000000000000000000000000000000013
:103DB0000000000000000000000000000000000003
:103DC00000000000000000000000000000000000F3
:103DD00000000000000000000000000000000000E3
:103DE00000000000000000000000000000000000D3
:103DF000000000000000000000000000AAAAAAAA1B
:043E000000000000BE
:040000050800018965
:00000001FF
